{
  "contractName": "Verification",
  "abi": [
    {
      "inputs": [],
      "stateMutability": "nonpayable",
      "type": "constructor"
    },
    {
      "inputs": [],
      "name": "manager",
      "outputs": [
        {
          "internalType": "address",
          "name": "",
          "type": "address"
        }
      ],
      "stateMutability": "view",
      "type": "function"
    },
    {
      "inputs": [
        {
          "internalType": "string",
          "name": "",
          "type": "string"
        }
      ],
      "name": "storeCandidateDegreeInfo",
      "outputs": [
        {
          "internalType": "string",
          "name": "university",
          "type": "string"
        },
        {
          "internalType": "string",
          "name": "degreeName",
          "type": "string"
        },
        {
          "internalType": "string",
          "name": "major",
          "type": "string"
        },
        {
          "internalType": "string",
          "name": "year",
          "type": "string"
        },
        {
          "internalType": "string",
          "name": "gpa",
          "type": "string"
        }
      ],
      "stateMutability": "view",
      "type": "function"
    },
    {
      "inputs": [
        {
          "internalType": "string",
          "name": "",
          "type": "string"
        }
      ],
      "name": "storeCandidateInfo",
      "outputs": [
        {
          "internalType": "string",
          "name": "ssn",
          "type": "string"
        },
        {
          "internalType": "string",
          "name": "firstName",
          "type": "string"
        },
        {
          "internalType": "string",
          "name": "lastName",
          "type": "string"
        },
        {
          "internalType": "string",
          "name": "homeAddress",
          "type": "string"
        },
        {
          "internalType": "string",
          "name": "uni",
          "type": "string"
        }
      ],
      "stateMutability": "view",
      "type": "function"
    },
    {
      "inputs": [
        {
          "internalType": "string",
          "name": "ssn",
          "type": "string"
        },
        {
          "internalType": "string",
          "name": "firstName",
          "type": "string"
        },
        {
          "internalType": "string",
          "name": "lastName",
          "type": "string"
        },
        {
          "internalType": "string",
          "name": "homeAddress",
          "type": "string"
        },
        {
          "internalType": "string",
          "name": "uni",
          "type": "string"
        }
      ],
      "name": "candidateHandler",
      "outputs": [],
      "stateMutability": "nonpayable",
      "type": "function"
    },
    {
      "inputs": [
        {
          "internalType": "string",
          "name": "university",
          "type": "string"
        },
        {
          "internalType": "string",
          "name": "ssn",
          "type": "string"
        },
        {
          "internalType": "string",
          "name": "degreeName",
          "type": "string"
        },
        {
          "internalType": "string",
          "name": "major",
          "type": "string"
        },
        {
          "internalType": "string",
          "name": "year",
          "type": "string"
        },
        {
          "internalType": "string",
          "name": "gpa",
          "type": "string"
        }
      ],
      "name": "institutionHandler",
      "outputs": [],
      "stateMutability": "nonpayable",
      "type": "function"
    },
    {
      "inputs": [
        {
          "internalType": "string",
          "name": "ssn",
          "type": "string"
        }
      ],
      "name": "employerHandler",
      "outputs": [
        {
          "internalType": "string",
          "name": "",
          "type": "string"
        },
        {
          "internalType": "string",
          "name": "",
          "type": "string"
        },
        {
          "internalType": "string",
          "name": "",
          "type": "string"
        },
        {
          "internalType": "string",
          "name": "",
          "type": "string"
        },
        {
          "internalType": "string",
          "name": "",
          "type": "string"
        },
        {
          "internalType": "string",
          "name": "",
          "type": "string"
        },
        {
          "internalType": "string",
          "name": "",
          "type": "string"
        }
      ],
      "stateMutability": "view",
      "type": "function"
    }
  ],
  "bytecode": "0x608060405234801561001057600080fd5b5033600260006101000a81548173ffffffffffffffffffffffffffffffffffffffff021916908373ffffffffffffffffffffffffffffffffffffffff16021790555061157e806100616000396000f3fe608060405234801561001057600080fd5b50600436106100625760003560e01c80631b20d2f01461006757806331b842dd1461009b578063444785b6146100cf578063481c6a7514610105578063b2c41cb614610123578063c94a4a9c1461013f575b600080fd5b610081600480360381019061007c9190611016565b61015b565b6040516100929594939291906110e7565b60405180910390f35b6100b560048036038101906100b09190611016565b61044f565b6040516100c69594939291906110e7565b60405180910390f35b6100e960048036038101906100e49190611016565b610743565b6040516100fc979695949392919061115d565b60405180910390f35b61010d610c32565b60405161011a919061123e565b60405180910390f35b61013d60048036038101906101389190611259565b610c58565b005b6101596004803603810190610154919061138e565b610d39565b005b600181805160208101820180518482526020830160208501208183528095505050505050600091509050806000018054610194906114c4565b80601f01602080910402602001604051908101604052809291908181526020018280546101c0906114c4565b801561020d5780601f106101e25761010080835404028352916020019161020d565b820191906000526020600020905b8154815290600101906020018083116101f057829003601f168201915b505050505090806001018054610222906114c4565b80601f016020809104026020016040519081016040528092919081815260200182805461024e906114c4565b801561029b5780601f106102705761010080835404028352916020019161029b565b820191906000526020600020905b81548152906001019060200180831161027e57829003601f168201915b5050505050908060020180546102b0906114c4565b80601f01602080910402602001604051908101604052809291908181526020018280546102dc906114c4565b80156103295780601f106102fe57610100808354040283529160200191610329565b820191906000526020600020905b81548152906001019060200180831161030c57829003601f168201915b50505050509080600301805461033e906114c4565b80601f016020809104026020016040519081016040528092919081815260200182805461036a906114c4565b80156103b75780601f1061038c576101008083540402835291602001916103b7565b820191906000526020600020905b81548152906001019060200180831161039a57829003601f168201915b5050505050908060040180546103cc906114c4565b80601f01602080910402602001604051908101604052809291908181526020018280546103f8906114c4565b80156104455780601f1061041a57610100808354040283529160200191610445565b820191906000526020600020905b81548152906001019060200180831161042857829003601f168201915b5050505050905085565b600081805160208101820180518482526020830160208501208183528095505050505050600091509050806000018054610488906114c4565b80601f01602080910402602001604051908101604052809291908181526020018280546104b4906114c4565b80156105015780601f106104d657610100808354040283529160200191610501565b820191906000526020600020905b8154815290600101906020018083116104e457829003601f168201915b505050505090806001018054610516906114c4565b80601f0160208091040260200160405190810160405280929190818152602001828054610542906114c4565b801561058f5780601f106105645761010080835404028352916020019161058f565b820191906000526020600020905b81548152906001019060200180831161057257829003601f168201915b5050505050908060020180546105a4906114c4565b80601f01602080910402602001604051908101604052809291908181526020018280546105d0906114c4565b801561061d5780601f106105f25761010080835404028352916020019161061d565b820191906000526020600020905b81548152906001019060200180831161060057829003601f168201915b505050505090806003018054610632906114c4565b80601f016020809104026020016040519081016040528092919081815260200182805461065e906114c4565b80156106ab5780601f10610680576101008083540402835291602001916106ab565b820191906000526020600020905b81548152906001019060200180831161068e57829003601f168201915b5050505050908060040180546106c0906114c4565b80601f01602080910402602001604051908101604052809291908181526020018280546106ec906114c4565b80156107395780601f1061070e57610100808354040283529160200191610739565b820191906000526020600020905b81548152906001019060200180831161071c57829003601f168201915b5050505050905085565b606080606080606080606060006001896040516107609190611531565b9081526020016040518091039020600101805461077c906114c4565b80601f01602080910402602001604051908101604052809291908181526020018280546107a8906114c4565b80156107f55780601f106107ca576101008083540402835291602001916107f5565b820191906000526020600020905b8154815290600101906020018083116107d857829003601f168201915b50505050509050600060018a60405161080e9190611531565b9081526020016040518091039020600201805461082a906114c4565b80601f0160208091040260200160405190810160405280929190818152602001828054610856906114c4565b80156108a35780601f10610878576101008083540402835291602001916108a3565b820191906000526020600020905b81548152906001019060200180831161088657829003601f168201915b505050505090506000808b6040516108bb9190611531565b908152602001604051809103902060000180546108d7906114c4565b80601f0160208091040260200160405190810160405280929190818152602001828054610903906114c4565b80156109505780601f1061092557610100808354040283529160200191610950565b820191906000526020600020905b81548152906001019060200180831161093357829003601f168201915b505050505090506000808c6040516109689190611531565b90815260200160405180910390206002018054610984906114c4565b80601f01602080910402602001604051908101604052809291908181526020018280546109b0906114c4565b80156109fd5780601f106109d2576101008083540402835291602001916109fd565b820191906000526020600020905b8154815290600101906020018083116109e057829003601f168201915b505050505090506000808d604051610a159190611531565b90815260200160405180910390206001018054610a31906114c4565b80601f0160208091040260200160405190810160405280929190818152602001828054610a5d906114c4565b8015610aaa5780601f10610a7f57610100808354040283529160200191610aaa565b820191906000526020600020905b815481529060010190602001808311610a8d57829003601f168201915b505050505090506000808e604051610ac29190611531565b90815260200160405180910390206003018054610ade906114c4565b80601f0160208091040260200160405190810160405280929190818152602001828054610b0a906114c4565b8015610b575780601f10610b2c57610100808354040283529160200191610b57565b820191906000526020600020905b815481529060010190602001808311610b3a57829003601f168201915b505050505090506000808f604051610b6f9190611531565b90815260200160405180910390206004018054610b8b906114c4565b80601f0160208091040260200160405190810160405280929190818152602001828054610bb7906114c4565b8015610c045780601f10610bd957610100808354040283529160200191610c04565b820191906000526020600020905b815481529060010190602001808311610be757829003601f168201915b50505050509050868686868686869d509d509d509d509d509d509d5050505050505050919395979092949650565b600260009054906101000a900473ffffffffffffffffffffffffffffffffffffffff1681565b6040518060a0016040528087815260200185815260200184815260200183815260200182815250600086604051610c8f9190611531565b90815260200160405180910390206000820151816000019080519060200190610cb9929190610e19565b506020820151816001019080519060200190610cd6929190610e19565b506040820151816002019080519060200190610cf3929190610e19565b506060820151816003019080519060200190610d10929190610e19565b506080820151816004019080519060200190610d2d929190610e19565b50905050505050505050565b6040518060a0016040528086815260200185815260200184815260200183815260200182815250600186604051610d709190611531565b90815260200160405180910390206000820151816000019080519060200190610d9a929190610e19565b506020820151816001019080519060200190610db7929190610e19565b506040820151816002019080519060200190610dd4929190610e19565b506060820151816003019080519060200190610df1929190610e19565b506080820151816004019080519060200190610e0e929190610e19565b509050505050505050565b828054610e25906114c4565b90600052602060002090601f016020900481019282610e475760008555610e8e565b82601f10610e6057805160ff1916838001178555610e8e565b82800160010185558215610e8e579182015b82811115610e8d578251825591602001919060010190610e72565b5b509050610e9b9190610e9f565b5090565b5b80821115610eb8576000816000905550600101610ea0565b5090565b6000604051905090565b600080fd5b600080fd5b600080fd5b600080fd5b6000601f19601f8301169050919050565b7f4e487b7100000000000000000000000000000000000000000000000000000000600052604160045260246000fd5b610f2382610eda565b810181811067ffffffffffffffff82111715610f4257610f41610eeb565b5b80604052505050565b6000610f55610ebc565b9050610f618282610f1a565b919050565b600067ffffffffffffffff821115610f8157610f80610eeb565b5b610f8a82610eda565b9050602081019050919050565b82818337600083830152505050565b6000610fb9610fb484610f66565b610f4b565b905082815260208101848484011115610fd557610fd4610ed5565b5b610fe0848285610f97565b509392505050565b600082601f830112610ffd57610ffc610ed0565b5b813561100d848260208601610fa6565b91505092915050565b60006020828403121561102c5761102b610ec6565b5b600082013567ffffffffffffffff81111561104a57611049610ecb565b5b61105684828501610fe8565b91505092915050565b600081519050919050565b600082825260208201905092915050565b60005b8381101561109957808201518184015260208101905061107e565b838111156110a8576000848401525b50505050565b60006110b98261105f565b6110c3818561106a565b93506110d381856020860161107b565b6110dc81610eda565b840191505092915050565b600060a082019050818103600083015261110181886110ae565b9050818103602083015261111581876110ae565b9050818103604083015261112981866110ae565b9050818103606083015261113d81856110ae565b9050818103608083015261115181846110ae565b90509695505050505050565b600060e0820190508181036000830152611177818a6110ae565b9050818103602083015261118b81896110ae565b9050818103604083015261119f81886110ae565b905081810360608301526111b381876110ae565b905081810360808301526111c781866110ae565b905081810360a08301526111db81856110ae565b905081810360c08301526111ef81846110ae565b905098975050505050505050565b600073ffffffffffffffffffffffffffffffffffffffff82169050919050565b6000611228826111fd565b9050919050565b6112388161121d565b82525050565b6000602082019050611253600083018461122f565b92915050565b60008060008060008060c0878903121561127657611275610ec6565b5b600087013567ffffffffffffffff81111561129457611293610ecb565b5b6112a089828a01610fe8565b965050602087013567ffffffffffffffff8111156112c1576112c0610ecb565b5b6112cd89828a01610fe8565b955050604087013567ffffffffffffffff8111156112ee576112ed610ecb565b5b6112fa89828a01610fe8565b945050606087013567ffffffffffffffff81111561131b5761131a610ecb565b5b61132789828a01610fe8565b935050608087013567ffffffffffffffff81111561134857611347610ecb565b5b61135489828a01610fe8565b92505060a087013567ffffffffffffffff81111561137557611374610ecb565b5b61138189828a01610fe8565b9150509295509295509295565b600080600080600060a086880312156113aa576113a9610ec6565b5b600086013567ffffffffffffffff8111156113c8576113c7610ecb565b5b6113d488828901610fe8565b955050602086013567ffffffffffffffff8111156113f5576113f4610ecb565b5b61140188828901610fe8565b945050604086013567ffffffffffffffff81111561142257611421610ecb565b5b61142e88828901610fe8565b935050606086013567ffffffffffffffff81111561144f5761144e610ecb565b5b61145b88828901610fe8565b925050608086013567ffffffffffffffff81111561147c5761147b610ecb565b5b61148888828901610fe8565b9150509295509295909350565b7f4e487b7100000000000000000000000000000000000000000000000000000000600052602260045260246000fd5b600060028204905060018216806114dc57607f821691505b6020821081036114ef576114ee611495565b5b50919050565b600081905092915050565b600061150b8261105f565b61151581856114f5565b935061152581856020860161107b565b80840191505092915050565b600061153d8284611500565b91508190509291505056fea264697066735822122031a853026ce011195bd21c3e0b4b158e1f402c9a13a3338c1bff01968bcd9d1964736f6c634300080d0033",
  "immutableReferences": {},
  "source": "// SPDX-License-Identifier: MIT\npragma solidity ^0.8.0;\n\nimport '@openzeppelin/contracts/access/Ownable.sol';\nimport '@openzeppelin/contracts/token/ERC20/ERC20.sol';\n\ncontract Verification {\n    struct CandidateRequest{\n        string ssn;\n        string firstName;\n        string lastName;\n        string homeAddress;\n        string uni;\n    }\n\n    struct DegreeInfo {\n        string university;\n        string degreeName;\n        string major;\n        string year;\n        string gpa;\n    }\n\n\n    struct EmployerRequest{\n        string firstName;\n        string lastName;\n        string ssn;\n    }\n\n    // response that will be sent to employer\n    struct EmployerReponse {\n        CandidateRequest candidateInfo;\n        DegreeInfo degreeInfo;\n    }\n\n    // mapping when candidate joins the contract\n    mapping(string => DegreeInfo) public storeCandidateDegreeInfo;\n    mapping(string => CandidateRequest) public storeCandidateInfo;\n     \n    address public manager;\n    constructor() {\n        manager = msg.sender;\n    }\n\n    function candidateHandler(string memory ssn,  string memory firstName,  string memory lastName, string memory homeAddress, string memory uni) public {\n        storeCandidateInfo[ssn] = CandidateRequest(ssn, firstName, lastName, homeAddress, uni);\n    }\n\n    function institutionHandler(string memory university, string memory ssn, string memory degreeName, string memory major, string memory year, string memory gpa) public {\n        storeCandidateDegreeInfo[ssn] = DegreeInfo(university, degreeName, major, year, gpa);\n    }\n\n    function employerHandler(string memory ssn) public view returns(string memory, string memory, string memory, string memory, string memory, string memory, string memory) {\n        string memory firstName = storeCandidateInfo[ssn].firstName;\n        string memory lastName = storeCandidateInfo[ssn].lastName;\n        string memory university = storeCandidateDegreeInfo[ssn].university;\n        string memory major = storeCandidateDegreeInfo[ssn].major;\n        string memory degreeName = storeCandidateDegreeInfo[ssn].degreeName;\n        string memory year = storeCandidateDegreeInfo[ssn].year;\n        string memory gpa = storeCandidateDegreeInfo[ssn].gpa;\n        return (firstName,lastName,university,major,degreeName,year, gpa);\n    }\n}",
  "sourcePath": "/Users/monirul/Desktop/E6883-Huygens_smartcontract/contracts/Verification.sol",
  "compiler": {
    "name": "solc",
    "version": "0.8.13+commit.abaa5c0e.Emscripten.clang"
  },
  "schemaVersion": "3.4.7",
  "updatedAt": "2022-05-10T02:23:40.991Z",
  "devdoc": {
    "kind": "dev",
    "methods": {},
    "version": 1
  },
  "userdoc": {
    "kind": "user",
    "methods": {},
    "version": 1
  }
}