{
  "_format": "hh-sol-artifact-1",
  "contractName": "Verification",
  "sourceName": "contracts/Verification.sol",
  "abi": [
    {
      "inputs": [],
      "stateMutability": "nonpayable",
      "type": "constructor"
    },
    {
      "inputs": [
        {
          "internalType": "string",
          "name": "ssn",
          "type": "string"
        },
        {
          "internalType": "string",
          "name": "firstName",
          "type": "string"
        },
        {
          "internalType": "string",
          "name": "lastName",
          "type": "string"
        },
        {
          "internalType": "string",
          "name": "homeAddress",
          "type": "string"
        },
        {
          "internalType": "string",
          "name": "uni",
          "type": "string"
        }
      ],
      "name": "candidateHandler",
      "outputs": [],
      "stateMutability": "nonpayable",
      "type": "function"
    },
    {
      "inputs": [
        {
          "internalType": "string",
          "name": "ssn",
          "type": "string"
        }
      ],
      "name": "employerHandler",
      "outputs": [
        {
          "internalType": "string",
          "name": "",
          "type": "string"
        },
        {
          "internalType": "string",
          "name": "",
          "type": "string"
        },
        {
          "internalType": "string",
          "name": "",
          "type": "string"
        },
        {
          "internalType": "string",
          "name": "",
          "type": "string"
        },
        {
          "internalType": "string",
          "name": "",
          "type": "string"
        },
        {
          "internalType": "string",
          "name": "",
          "type": "string"
        },
        {
          "internalType": "string",
          "name": "",
          "type": "string"
        }
      ],
      "stateMutability": "view",
      "type": "function"
    },
    {
      "inputs": [
        {
          "internalType": "string",
          "name": "university",
          "type": "string"
        },
        {
          "internalType": "string",
          "name": "ssn",
          "type": "string"
        },
        {
          "internalType": "string",
          "name": "degreeName",
          "type": "string"
        },
        {
          "internalType": "string",
          "name": "major",
          "type": "string"
        },
        {
          "internalType": "string",
          "name": "year",
          "type": "string"
        },
        {
          "internalType": "string",
          "name": "gpa",
          "type": "string"
        }
      ],
      "name": "institutionHandler",
      "outputs": [],
      "stateMutability": "nonpayable",
      "type": "function"
    },
    {
      "inputs": [],
      "name": "manager",
      "outputs": [
        {
          "internalType": "address",
          "name": "",
          "type": "address"
        }
      ],
      "stateMutability": "view",
      "type": "function"
    },
    {
      "inputs": [
        {
          "internalType": "string",
          "name": "",
          "type": "string"
        }
      ],
      "name": "storeCandidateDegreeInfo",
      "outputs": [
        {
          "internalType": "string",
          "name": "university",
          "type": "string"
        },
        {
          "internalType": "string",
          "name": "degreeName",
          "type": "string"
        },
        {
          "internalType": "string",
          "name": "major",
          "type": "string"
        },
        {
          "internalType": "string",
          "name": "year",
          "type": "string"
        },
        {
          "internalType": "string",
          "name": "gpa",
          "type": "string"
        }
      ],
      "stateMutability": "view",
      "type": "function"
    },
    {
      "inputs": [
        {
          "internalType": "string",
          "name": "",
          "type": "string"
        }
      ],
      "name": "storeCandidateInfo",
      "outputs": [
        {
          "internalType": "string",
          "name": "ssn",
          "type": "string"
        },
        {
          "internalType": "string",
          "name": "firstName",
          "type": "string"
        },
        {
          "internalType": "string",
          "name": "lastName",
          "type": "string"
        },
        {
          "internalType": "string",
          "name": "homeAddress",
          "type": "string"
        },
        {
          "internalType": "string",
          "name": "uni",
          "type": "string"
        }
      ],
      "stateMutability": "view",
      "type": "function"
    }
  ],
  "bytecode": "0x608060405234801561001057600080fd5b5033600260006101000a81548173ffffffffffffffffffffffffffffffffffffffff021916908373ffffffffffffffffffffffffffffffffffffffff160217905550611527806100616000396000f3fe608060405234801561001057600080fd5b50600436106100625760003560e01c80631b20d2f01461006757806331b842dd1461009b578063444785b6146100cf578063481c6a7514610105578063b2c41cb614610123578063c94a4a9c1461013f575b600080fd5b610081600480360381019061007c9190610f24565b61015b565b604051610092959493929190611218565b60405180910390f35b6100b560048036038101906100b09190610f24565b61044f565b6040516100c6959493929190611218565b60405180910390f35b6100e960048036038101906100e49190610f24565b610743565b6040516100fc979695949392919061128e565b60405180910390f35b61010d610c32565b60405161011a91906111fd565b60405180910390f35b61013d60048036038101906101389190611054565b610c58565b005b61015960048036038101906101549190610f65565b610d39565b005b6001818051602081018201805184825260208301602085012081835280955050505050506000915090508060000180546101949061141f565b80601f01602080910402602001604051908101604052809291908181526020018280546101c09061141f565b801561020d5780601f106101e25761010080835404028352916020019161020d565b820191906000526020600020905b8154815290600101906020018083116101f057829003601f168201915b5050505050908060010180546102229061141f565b80601f016020809104026020016040519081016040528092919081815260200182805461024e9061141f565b801561029b5780601f106102705761010080835404028352916020019161029b565b820191906000526020600020905b81548152906001019060200180831161027e57829003601f168201915b5050505050908060020180546102b09061141f565b80601f01602080910402602001604051908101604052809291908181526020018280546102dc9061141f565b80156103295780601f106102fe57610100808354040283529160200191610329565b820191906000526020600020905b81548152906001019060200180831161030c57829003601f168201915b50505050509080600301805461033e9061141f565b80601f016020809104026020016040519081016040528092919081815260200182805461036a9061141f565b80156103b75780601f1061038c576101008083540402835291602001916103b7565b820191906000526020600020905b81548152906001019060200180831161039a57829003601f168201915b5050505050908060040180546103cc9061141f565b80601f01602080910402602001604051908101604052809291908181526020018280546103f89061141f565b80156104455780601f1061041a57610100808354040283529160200191610445565b820191906000526020600020905b81548152906001019060200180831161042857829003601f168201915b5050505050905085565b6000818051602081018201805184825260208301602085012081835280955050505050506000915090508060000180546104889061141f565b80601f01602080910402602001604051908101604052809291908181526020018280546104b49061141f565b80156105015780601f106104d657610100808354040283529160200191610501565b820191906000526020600020905b8154815290600101906020018083116104e457829003601f168201915b5050505050908060010180546105169061141f565b80601f01602080910402602001604051908101604052809291908181526020018280546105429061141f565b801561058f5780601f106105645761010080835404028352916020019161058f565b820191906000526020600020905b81548152906001019060200180831161057257829003601f168201915b5050505050908060020180546105a49061141f565b80601f01602080910402602001604051908101604052809291908181526020018280546105d09061141f565b801561061d5780601f106105f25761010080835404028352916020019161061d565b820191906000526020600020905b81548152906001019060200180831161060057829003601f168201915b5050505050908060030180546106329061141f565b80601f016020809104026020016040519081016040528092919081815260200182805461065e9061141f565b80156106ab5780601f10610680576101008083540402835291602001916106ab565b820191906000526020600020905b81548152906001019060200180831161068e57829003601f168201915b5050505050908060040180546106c09061141f565b80601f01602080910402602001604051908101604052809291908181526020018280546106ec9061141f565b80156107395780601f1061070e57610100808354040283529160200191610739565b820191906000526020600020905b81548152906001019060200180831161071c57829003601f168201915b5050505050905085565b6060806060806060806060600060018960405161076091906111e6565b9081526020016040518091039020600101805461077c9061141f565b80601f01602080910402602001604051908101604052809291908181526020018280546107a89061141f565b80156107f55780601f106107ca576101008083540402835291602001916107f5565b820191906000526020600020905b8154815290600101906020018083116107d857829003601f168201915b50505050509050600060018a60405161080e91906111e6565b9081526020016040518091039020600201805461082a9061141f565b80601f01602080910402602001604051908101604052809291908181526020018280546108569061141f565b80156108a35780601f10610878576101008083540402835291602001916108a3565b820191906000526020600020905b81548152906001019060200180831161088657829003601f168201915b505050505090506000808b6040516108bb91906111e6565b908152602001604051809103902060000180546108d79061141f565b80601f01602080910402602001604051908101604052809291908181526020018280546109039061141f565b80156109505780601f1061092557610100808354040283529160200191610950565b820191906000526020600020905b81548152906001019060200180831161093357829003601f168201915b505050505090506000808c60405161096891906111e6565b908152602001604051809103902060020180546109849061141f565b80601f01602080910402602001604051908101604052809291908181526020018280546109b09061141f565b80156109fd5780601f106109d2576101008083540402835291602001916109fd565b820191906000526020600020905b8154815290600101906020018083116109e057829003601f168201915b505050505090506000808d604051610a1591906111e6565b90815260200160405180910390206001018054610a319061141f565b80601f0160208091040260200160405190810160405280929190818152602001828054610a5d9061141f565b8015610aaa5780601f10610a7f57610100808354040283529160200191610aaa565b820191906000526020600020905b815481529060010190602001808311610a8d57829003601f168201915b505050505090506000808e604051610ac291906111e6565b90815260200160405180910390206003018054610ade9061141f565b80601f0160208091040260200160405190810160405280929190818152602001828054610b0a9061141f565b8015610b575780601f10610b2c57610100808354040283529160200191610b57565b820191906000526020600020905b815481529060010190602001808311610b3a57829003601f168201915b505050505090506000808f604051610b6f91906111e6565b90815260200160405180910390206004018054610b8b9061141f565b80601f0160208091040260200160405190810160405280929190818152602001828054610bb79061141f565b8015610c045780601f10610bd957610100808354040283529160200191610c04565b820191906000526020600020905b815481529060010190602001808311610be757829003601f168201915b50505050509050868686868686869d509d509d509d509d509d509d5050505050505050919395979092949650565b600260009054906101000a900473ffffffffffffffffffffffffffffffffffffffff1681565b6040518060a0016040528087815260200185815260200184815260200183815260200182815250600086604051610c8f91906111e6565b90815260200160405180910390206000820151816000019080519060200190610cb9929190610e19565b506020820151816001019080519060200190610cd6929190610e19565b506040820151816002019080519060200190610cf3929190610e19565b506060820151816003019080519060200190610d10929190610e19565b506080820151816004019080519060200190610d2d929190610e19565b50905050505050505050565b6040518060a0016040528086815260200185815260200184815260200183815260200182815250600186604051610d7091906111e6565b90815260200160405180910390206000820151816000019080519060200190610d9a929190610e19565b506020820151816001019080519060200190610db7929190610e19565b506040820151816002019080519060200190610dd4929190610e19565b506060820151816003019080519060200190610df1929190610e19565b506080820151816004019080519060200190610e0e929190610e19565b509050505050505050565b828054610e259061141f565b90600052602060002090601f016020900481019282610e475760008555610e8e565b82601f10610e6057805160ff1916838001178555610e8e565b82800160010185558215610e8e579182015b82811115610e8d578251825591602001919060010190610e72565b5b509050610e9b9190610e9f565b5090565b5b80821115610eb8576000816000905550600101610ea0565b5090565b6000610ecf610eca84611353565b61132e565b905082815260208101848484011115610ee757600080fd5b610ef28482856113dd565b509392505050565b600082601f830112610f0b57600080fd5b8135610f1b848260208601610ebc565b91505092915050565b600060208284031215610f3657600080fd5b600082013567ffffffffffffffff811115610f5057600080fd5b610f5c84828501610efa565b91505092915050565b600080600080600060a08688031215610f7d57600080fd5b600086013567ffffffffffffffff811115610f9757600080fd5b610fa388828901610efa565b955050602086013567ffffffffffffffff811115610fc057600080fd5b610fcc88828901610efa565b945050604086013567ffffffffffffffff811115610fe957600080fd5b610ff588828901610efa565b935050606086013567ffffffffffffffff81111561101257600080fd5b61101e88828901610efa565b925050608086013567ffffffffffffffff81111561103b57600080fd5b61104788828901610efa565b9150509295509295909350565b60008060008060008060c0878903121561106d57600080fd5b600087013567ffffffffffffffff81111561108757600080fd5b61109389828a01610efa565b965050602087013567ffffffffffffffff8111156110b057600080fd5b6110bc89828a01610efa565b955050604087013567ffffffffffffffff8111156110d957600080fd5b6110e589828a01610efa565b945050606087013567ffffffffffffffff81111561110257600080fd5b61110e89828a01610efa565b935050608087013567ffffffffffffffff81111561112b57600080fd5b61113789828a01610efa565b92505060a087013567ffffffffffffffff81111561115457600080fd5b61116089828a01610efa565b9150509295509295509295565b611176816113ab565b82525050565b600061118782611384565b611191818561138f565b93506111a18185602086016113ec565b6111aa816114e0565b840191505092915050565b60006111c082611384565b6111ca81856113a0565b93506111da8185602086016113ec565b80840191505092915050565b60006111f282846111b5565b915081905092915050565b6000602082019050611212600083018461116d565b92915050565b600060a0820190508181036000830152611232818861117c565b90508181036020830152611246818761117c565b9050818103604083015261125a818661117c565b9050818103606083015261126e818561117c565b90508181036080830152611282818461117c565b90509695505050505050565b600060e08201905081810360008301526112a8818a61117c565b905081810360208301526112bc818961117c565b905081810360408301526112d0818861117c565b905081810360608301526112e4818761117c565b905081810360808301526112f8818661117c565b905081810360a083015261130c818561117c565b905081810360c0830152611320818461117c565b905098975050505050505050565b6000611338611349565b90506113448282611451565b919050565b6000604051905090565b600067ffffffffffffffff82111561136e5761136d6114b1565b5b611377826114e0565b9050602081019050919050565b600081519050919050565b600082825260208201905092915050565b600081905092915050565b60006113b6826113bd565b9050919050565b600073ffffffffffffffffffffffffffffffffffffffff82169050919050565b82818337600083830152505050565b60005b8381101561140a5780820151818401526020810190506113ef565b83811115611419576000848401525b50505050565b6000600282049050600182168061143757607f821691505b6020821081141561144b5761144a611482565b5b50919050565b61145a826114e0565b810181811067ffffffffffffffff82111715611479576114786114b1565b5b80604052505050565b7f4e487b7100000000000000000000000000000000000000000000000000000000600052602260045260246000fd5b7f4e487b7100000000000000000000000000000000000000000000000000000000600052604160045260246000fd5b6000601f19601f830116905091905056fea26469706673582212200b6c1d25c865919a3fce01acc58b6fbf8af430564be5f1237deda3599d7a5d6564736f6c63430008040033",
  "linkReferences": {},
  "deployedLinkReferences": {}
}